:020000040800F2
:100000000028002051130008E1120008E712000840
:10001000ED120008F3120008F912000800000000B9
:10002000000000000000000000000000FF120008B7
:100030000B1300080000000017130008231300082A
:1000400099130008991300089913000899130008E0
:1000500099130008991300089913000899130008D0
:1000600099130008991300089913000899130008C0
:1000700099130008991300089913000899130008B0
:1000800099130008991300089913000899130008A0
:100090009913000899130008991300089913000890
:1000A0009913000899130008991300089913000880
:1000B000311300089913000800000000991300088C
:1000C00099130008000000000000000099130008C8
:1000D00000000000991300089913000800000000B8
:1000E00099130008991300089913000800000000F4
:1000F0000000000000000000000000000000000000
:0C01000000000000000000005FF808F1A3
:10010C0010B5054C237833B9044B13B10448AFF345
:10011C0000800123237010BD280000200000000087
:10012C00E029000808B5034B1BB103490348AFF3A2
:10013C00008008BD000000002C000020E029000811
:10014C0080B582B000AF78607B68082B00F28781A5
:10015C0001A252F823F000BF89010008DB0100085E
:10016C002D0200087F020008D102000823030008BA
:10017C0075030008C7030008190400080022402179
:10018C00CD4801F006FC00228021CB4801F001FC97
:10019C0000224FF48071C84801F0FBFB00224FF4A1
:1001AC000071C54801F0F5FB00224FF48061C24894
:1001BC0001F0EFFB00224FF40061BF4801F0E9FBB6
:1001CC0001224FF48051BC4801F0E3FB70E10122A5
:1001DC004021B94801F0DDFB00228021B64801F036
:1001EC00D8FB00224FF48071B34801F0D2FB0122FE
:1001FC004FF40071B04801F0CCFB01224FF4806148
:10020C00AD4801F0C6FB01224FF40061AA4801F091
:10021C00C0FB01224FF48051A74801F0BAFB47E123
:10022C0000224021A44801F0B4FB00228021A24806
:10023C0001F0AFFB01224FF480719F4801F0A9FB44
:10024C0000224FF400719C4801F0A3FB00224FF4F4
:10025C008061994801F09DFB01224FF400619648A2
:10026C0001F097FB00224FF48051934801F091FB71
:10027C001EE100224021904801F08BFB00228021DE
:10028C008D4801F086FB00224FF480718A4801F002
:10029C0080FB00224FF40071874801F07AFB0122A9
:1002AC004FF48061844801F074FB01224FF400612B
:1002BC00814801F06EFB00224FF480517E4801F022
:1002CC0068FBF5E0012240217B4801F062FB002233
:1002DC008021794801F05DFB00224FF48071764853
:1002EC0001F057FB01224FF40071734801F051FBF0
:1002FC0001224FF48061704801F04BFB00224FF457
:10030C0000616D4801F045FB00224FF480516A48B2
:10031C0001F03FFBCCE000224021674801F039FBA3
:10032C0001228021644801F034FB00224FF48071DB
:10033C00614801F02EFB00224FF400715E4801F081
:10034C0028FB01224FF480615B4801F022FB002264
:10035C004FF40061584801F01CFB00224FF480510F
:10036C00554801F016FBA3E000224021524801F051
:10037C0010FB01228021504801F00BFB00224FF4AE
:10038C0080714D4801F005FB00224FF400714A4882
:10039C0001F0FFFA00224FF48061474801F0F9FAAE
:1003AC0000224FF40061444801F0F3FA00224FF4AC
:1003BC008051414801F0EDFA7AE0002240213E489C
:1003CC0001F0E7FA002280213B4801F0E2FA00221A
:1003DC004FF48071384801F0DCFA01224FF40071BF
:1003EC00354801F0D6FA01224FF48061324801F011
:1003FC00D0FA01224FF400612F4801F0CAFA012211
:10040C004FF480512C4801F0C4FA51E000224021F5
:10041C00294801F0BEFA00228021274801F0B9FAE0
:10042C0000224FF48071244801F0B3FA00224FF4FB
:10043C000071214801F0ADFA00224FF480611E4892
:10044C0001F0A7FA00224FF400611B4801F0A1FA59
:10045C0000224FF48051184801F09BFA28E000224A
:10046C004021154801F095FA00228021124801F034
:10047C0090FA00224FF480710F4801F08AFA0022A2
:10048C004FF400710C4801F084FA01224FF48061A2
:10049C00094801F07EFA00224FF40061064801F091
:1004AC0078FA00224FF48051034801F072FA00BF31
:1004BC0000BF0837BD4680BD0008014080B483B042
:1004CC0000AF786039607B68184A82FB0312921087
:1004DC00DB17D31A164A13607968144B83FB01237C
:1004EC009A10CB17D21A13469B0013445B00CA1AFE
:1004FC000F4B5A603B680D4A82FB03129210DB17BC
:10050C00D31A0B4A93603968084B83FB01239A106A
:10051C00CB17D21A13469B0013445B00CA1A044B28
:10052C00DA6000BF0C37BD4680BC704767666666F4
:10053C004800002080B582B000AF78607B68032B48
:10054C007AD801A252F823F0650500089D05000831
:10055C00D50500080D06000800220821394801F0D5
:10056C0018FA01221021374801F013FA0122202138
:10057C00344801F00EFA01224021324801F009FA08
:10058C00314A7B6852F823301846FFF7D9FD54E006
:10059C00012208212B4801F0FCF9002210212948E6
:1005AC0001F0F7F901222021264801F0F2F901228D
:1005BC004021244801F0EDF9234A7B6852F823309E
:1005CC001846FFF7BDFD38E0012208211D4801F057
:1005DC00E0F9012210211B4801F0DBF90022202157
:1005EC00184801F0D6F901224021164801F0D1F942
:1005FC00154A7B6852F823301846FFF7A1FD1CE022
:10060C00012208210F4801F0C4F9012210210D48E4
:10061C0001F0BFF9012220210A4801F0BAF90022A9
:10062C004021084801F0B5F9074A7B6852F823309D
:10063C001846FFF785FD00E000BF00BF0837BD4638
:10064C0080BD00BF000C01404800002080B500AF09
:10065C00012201210E4801F09CF9012202210C48D3
:10066C0001F097F901220421094801F092F90122C5
:10067C000821074801F08DF901221021044801F0EE
:10068C0088F901222021024801F083F900BF80BDC6
:10069C000008014080B500AF00220121074801F09D
:1006AC0078F901220221054801F073F90122042195
:1006BC00024801F06EF900BF80BD00BF0008014088
:1006CC0080B500AF01220121074801F062F9002238
:1006DC000221054801F05DF901220421024801F0D4
:1006EC0058F900BF80BD00BF0008014080B500AFC5
:1006FC0001220121074801F04CF901220221054891
:10070C0001F047F900220421024801F042F900BF30
:10071C0080BD00BF0008014080B500AF0022082159
:10072C00074801F036F901221021054801F031F992
:10073C0001222021024801F02CF900BF80BD00BF2E
:10074C000008014080B500AF01220821074801F0E4
:10075C0020F900221021054801F01BF9012220216B
:10076C00024801F016F900BF80BD00BF000801402F
:10077C0080B500AF01220821074801F00AF90122D7
:10078C001021054801F005F900222021024801F052
:10079C0000F900BF80BD00BF0008014080B500AF6C
:1007AC000121044801F00DF90821024801F009F972
:1007BC0000BF80BD0008014080B500AF0221044895
:1007CC0001F0FFF81021024801F0FBF800BF80BDDA
:1007DC000008014080B500AF0421044801F0F1F895
:1007EC002021024801F0EDF800BF80BD0008014057
:1007FC0080B400AF074B1B680133064A1360054BEE
:10080C001B68632B02DD034B01221A6000BFBD463F
:10081C0080BC70475800002080B500AFA94B1B6806
:10082C000C2B00F2218201A252F823F06D08000873
:10083C009F0800082B090008B7090008430A0008A4
:10084C00750C0008750C0008750C0008750C000878
:10085C00750C0008F10A0008630B0008E50B000892
:10086C00FFF7F4FE974B01221A60974B1B6864222A
:10087C0002FB03F3184600F009FC642000F01AFC9C
:10088C00924B1B68924A13608F4B1B68914A136002
:10089C00F9E1FFF7FFFEFFF76BFF8F4B1B68012B96
:1008AC0015D1884B02221A608C4B1B68642202FB08
:1008BC0003F3184600F0EAFB642000F0FBFB874BC7
:1008CC001B68834A1360854B1B68824A1360844BF8
:1008DC001B68012B0CD1642000F0ECFB7C4B1B68DB
:1008EC00013B7B4A13607B4B1B68013B794A1360CD
:1008FC00002000F069FA0346002B00F0B781714B21
:10090C000A221A60714B1B68714A1360714B0222E8
:10091C001A60FFF79BFE192000F008FCA6E1FFF718
:10092C00B9FEFFF70FFF6C4B1B68012B15D1654B04
:10093C0003221A60644B1B68642202FB03F3184603
:10094C0000F0A4FB642000F0B5FB5F4B1B68604A11
:10095C0013605E4B1B685F4A1360614B1B68012B75
:10096C000CD15B4B1B68013B594A1360594B1B68FC
:10097C00013B584A1360642000F09CFB002000F0FF
:10098C0023FA0346002B00F073814E4B0A221A60A7
:10099C004E4B1B684E4A13604E4B02221A60FFF7F7
:1009AC0055FE192000F0C2FB62E1FFF79FFEFFF736
:1009BC00B3FE494B1B68012B15D1424B04221A6024
:1009CC00464B1B68642202FB03F3184600F05EFBE7
:1009DC00642000F06FFB414B1B683D4A13603F4B9A
:1009EC001B683C4A13603E4B1B68012B0CD16420E6
:1009FC0000F060FB364B1B68013B354A1360354BEE
:100A0C001B68013B334A1360002000F0DDF90346FC
:100A1C00002B00F02F812B4B0A221A602B4B1B68EA
:100A2C002B4A13602B4B02221A60FFF70FFE192082
:100A3C0000F07CFB1EE1FFF743FEFFF76DFE264B3B
:100A4C001B68012B15D11F4B01221A601E4B1B6812
:100A5C00642202FB03F3184600F018FB642000F03C
:100A6C0029FB1A4B1B681A4A1360174B1B68194A4F
:100A7C0013601B4B1B68012B0CD1154B1B68013BE6
:100A8C00134A1360134B1B68013B124A136064201A
:100A9C0000F010FB002000F097F90346002B00F04B
:100AAC00EB80084B0A221A60084B1B68084A13603B
:100ABC00084B02221A60FFF7C9FD192000F036FB23
:100ACC00DAE000BF440000200800002000000020F5
:100ADC00580000205C00002088000020040000204A
:100AEC0090000020694B1B68012B04D1192000F0E9
:100AFC001DFBFFF753FE012000F066F90346002BA7
:100B0C0001D0FFF775FE022000F05EF90346002BC2
:100B1C000AD05F4B1B685F4A13605E4B1A685E4BD2
:100B2C001B68D31A5D4A1360002000F04DF9034690
:100B3C00002B00F0A3805A4B0B221A60564B1B68FB
:100B4C00534A1360574B03221A60FFF77FFD19209D
:100B5C0000F0ECFA92E04D4B1B68012B04D11920EC
:100B6C0000F0E4FAFFF728FE012000F02DF903460F
:100B7C00002B01D0FFF73CFE022000F025F90346C4
:100B8C00002B13D0424B1B68434A1360424B1A682C
:100B9C00404B1B689A4202DB3E4B3C221A603D4B99
:100BAC001A683D4B1B68D31A3C4A1360002000F0B6
:100BBC000BF90346002B63D0394B0C221A60374BD0
:100BCC001B68334A1360374B04221A60FFF73EFD53
:100BDC00192000F0ABFA53E02C4B1B68012B04D10D
:100BEC00192000F0A3FAFFF7F5FD012000F0ECF856
:100BFC000346002B01D0FFF7FBFD022000F0E4F8C8
:100C0C000346002B13D0224B1B68244A1360234B42
:100C1C001A68204B1B689A4202DB1E4B3C221A605E
:100C2C001C4B1A681D4B1B68D31A1B4A13600020FF
:100C3C0000F0CAF80346002B24D0194B01221A608D
:100C4C00164B1B68642202FB03F3184600F01EFAD5
:100C5C00642000F02FFA0F4B1B680D4A13600F4BEA
:100C6C001B68104A13600DE000BF0CE000BF0AE0E7
:100C7C0000BF08E000BF06E000BF04E000BF02E0D8
:100C8C0000BF00E000BF00BF80BD00BFA800002077
:100C9C005800002000000020040000200800002064
:100CAC00440000205C00002080B582B000AF00231F
:100CBC007B6070E03C4A7B68134419783B4A7B6844
:100CCC0013440A461A703A4A7B6813441978364A18
:100CDC007B6813440A461A70364A7B6852F82330F4
:100CEC009BB21946344800F03DFE03461946304A83
:100CFC007B6813440A461A702D4A7B6813441A7891
:100D0C0029497B680B441B789A4241D1264A7B685F
:100D1C0013441A7825497B680B441B789A4237D1C7
:100D2C00234A7B6813441A7824497B680B441B784C
:100D3C009A4219D01E4A7B68134419781F4A7B6863
:100D4C0013440A461A701D4A7B6813441B78002B07
:100D5C001ED11B4A7B68012142F82310194A7B687B
:100D6C00C82142F8231013E0164A7B6852F823304E
:100D7C005A1E14497B6841F82320124A7B6852F8AA
:100D8C002330002B04DC0D4A7B68134401221A70BB
:100D9C007B6801337B607B68022B8BDD00BF00BF5F
:100DAC000837BD4680BD00BF7000002074000020D5
:100DBC006C00002010000020000C01400C000020F2
:100DCC00780000206000002080B483B000AF786011
:100DDC007B68022B02DC7B68002B01DA00230DE020
:100DEC00094A7B6852F82330012B06D1064A7B68EE
:100DFC00002142F82310012300E0002318460C3791
:100E0C00BD4680BC704700BF7800002080B582B022
:100E1C0000AF7860FFF748FF00F09CF900BF08377F
:100E2C00BD4680BD80B582B000AF00F0B1FA00F0D5
:100E3C003DF800F0C3F800F075F8174801F006FA19
:100E4C00192000F04BF9322000F05CF900237B6094
:100E5C00124B1B68012B0DD1192000F03FF97B6858
:100E6C005A1C7A601846FFF765FB7B68032B01DD83
:100E7C0000237B600A4B1B68012B0AD1094B1B68B2
:100E8C00094A126811461846FFF718FB322000F089
:100E9C0039F9FFF7C1FCDBE7AC000020980000201B
:100EAC00A0000020580000205C00002080B590B00D
:100EBC0000AF07F1180328220021184601F082FD2B
:100ECC003B1D00221A605A609A60DA601A61022394
:100EDC00BB610123BB621023FB6200237B6307F120
:100EEC001803184600F086FD0346002B01D000F0D5
:100EFC00C7F80F237B600023BB600023FB6000233B
:100F0C003B6100237B613B1D0021184600F0F2FF82
:100F1C000346002B01D000F0B3F800BF4037BD46AC
:100F2C0080BD000080B586B000AF07F10803002239
:100F3C001A605A609A60DA603B4600221A605A6066
:100F4C001D4B4FF080421A601B4B41F63F725A60AA
:100F5C00194B00229A60184B0922DA60164B0022BA
:100F6C001A61154B00229A61134801F01FF90346D0
:100F7C00002B01D000F084F84FF48053BB6007F1D4
:100F8C00080319460C4801F0B5FA0346002B01D0B2
:100F9C0000F076F800233B6000237B603B4619464B
:100FAC00054801F081FC0346002B01D000F068F8E5
:100FBC0000BF1837BD4680BDAC00002080B586B0A0
:100FCC0000AF07F1080300221A605A609A60DA60D9
:100FDC00284B9B69274A43F004039361254B9B697B
:100FEC0003F004037B607B68224B9B69214A43F02E
:100FFC00080393611F4B9B6903F008033B603B683C
:10100C00002241F6FF711C4800F0C3FC00224FF493
:10101C008F611A4800F0BDFC41F6FF73BB600123E1
:10102C00FB6000233B6102237B6107F10803194637
:10103C00114800F01DFB0723BB600023FB6001235C
:10104C003B6107F1080319460C4800F011FB4FF403
:10105C008F63BB600123FB6000233B6102237B6138
:10106C0007F108031946054800F002FB00BF1837CA
:10107C00BD4680BD0010024000080140000C01403C
:10108C0080B400AF72B600BFFEE7000080B483B03E
:10109C0000AF7860054A7B681360054B00221A602C
:1010AC0000BF0C37BD4680BC704700BF84000020D9
:1010BC008800002080B483B000AF7860054A7B685C
:1010CC001360054B00221A6000BF0C37BD4680BC74
:1010DC00704700BF8C0000209000002080B483B0CB
:1010EC0000AF7860054A7B681360054B00221A60DC
:1010FC0000BF0C37BD4680BC704700BF9400002079
:10110C009800002080B483B000AF7860054A7B68FB
:10111C001360054B00221A6000BF0C37BD4680BC23
:10112C00704700BF9C000020A000002080B483B05A
:10113C0000AF7860054A7B681360054B00221A608B
:10114C0000BF0C37BD4680BC704700BFA400002018
:10115C00A800002080B400AF294B1B68002B0BDDCE
:10116C00274B1B68013B264A1360254B1B68002B41
:10117C0002DC244B01221A60234B1B68002B0BDD75
:10118C00214B1B68013B204A13601F4B1B68002B33
:10119C0002DC1E4B01221A601D4B1B68002B0BDD61
:1011AC001B4B1B68013B1A4A1360194B1B68002B25
:1011BC0002DC184B01221A60174B1B68002B0BDD4D
:1011CC00154B1B68013B144A1360134B1B68002B17
:1011DC0002DC124B01221A60114B1B68002B0BDD39
:1011EC000F4B1B68013B0E4A13600D4B1B68002B09
:1011FC0002DC0C4B01221A6000BFBD4680BC70475C
:10120C0084000020880000208C000020900000202A
:10121C0094000020980000209C000020A0000020DA
:10122C00A4000020A800002080B485B000AF154BAE
:10123C009B69144A43F001039361124B9B6903F0C1
:10124C000103BB60BB680F4BDB690E4A43F0805354
:10125C00D3610C4BDB6903F080537B607B680A4BDA
:10126C005B68FB60FB6823F0E063FB60FB6843F0AA
:10127C008063FB60044AFB68536000BF1437BD46B3
:10128C0080BC7047001002400000014080B584B063
:10129C0000AF78607B681B68B3F1804F13D10C4BA7
:1012AC00DB690B4A43F00103D361094BDB6903F0A3
:1012BC000103FB60FB68002200211C2000F0A1F957
:1012CC001C2000F0BAF900BF1037BD4680BD00BF2E
:1012DC000010024080B400AFFEE780B400AFFEE720
:1012EC0080B400AFFEE780B400AFFEE780B400AF7F
:1012FC00FEE780B400AF00BFBD4680BC704780B431
:10130C0000AF00BFBD4680BC704780B400AF00BFCB
:10131C00BD4680BC704780B500AF00F07FF800BFC1
:10132C0080BD000080B500AF024800F0DBFF00BFBD
:10133C0080BD00BFAC00002080B400AF00BFBD4634
:10134C0080BC7047FFF7F8FF0B480C490C4A002390
:10135C0002E0D458C4500433C4188C42F9D3094A5F
:10136C00094C002301E013600432A242FBD301F0CC
:10137C0005FBFFF757FD70470000002028000020F8
:10138C00242A000828000020F8000020FEE70000B6
:10139C0080B500AF084B1B68074A43F0100313607D
:1013AC00032000F023F90F2000F008F8FFF73CFFB2
:1013BC000023184680BD00BF0020024080B582B0DB
:1013CC0000AF7860124B1A68124B1B7819464FF419
:1013DC007A73B3FBF1F3B2FBF3F3184600F03BF96D
:1013EC000346002B01D001230EE07B680F2B0AD89B
:1013FC00002279684FF0FF3000F003F9064A7B6851
:10140C001360002300E0012318460837BD4680BD59
:10141C001C000020240000202000002080B400AF1D
:10142C00054B1B781A46054B1B681344034A136083
:10143C0000BFBD4680BC704724000020F400002093
:10144C0080B400AF024B1B681846BD4680BC704789
:10145C00F400002080B485B000AF78607B6803F0A6
:10146C000703FB600C4BDB68BB60BA684FF6FF03ED
:10147C001340BB60FB681A02BB68134343F0BF63A5
:10148C0043F40033BB60044ABB68D36000BF14371D
:10149C00BD4680BC704700BF00ED00E080B400AFDB
:1014AC00044BDB681B0A03F007031846BD4680BCDF
:1014BC00704700BF00ED00E080B483B000AF03467E
:1014CC00FB7197F90730002B0BDBFB7903F01F0244
:1014DC00064997F907305B09012000FA02F241F83E
:1014EC00232000BF0C37BD4680BC704700E100E0F4
:1014FC0080B483B000AF03463960FB7197F90730B5
:10150C00002B0ADB3B68DAB20C4997F90730120161
:10151C00D2B20B4483F800230AE03B68DAB20849E4
:10152C00FB7903F00F03043B1201D2B20B441A7681
:10153C0000BF0C37BD4680BC704700BF00E100E027
:10154C0000ED00E080B489B000AFF860B9607A605B
:10155C00FB6803F00703FB61FB69C3F10703042B72
:10156C0028BF0423BB61FB690433062B02D9FB693A
:10157C00033B00E000237B614FF0FF32BB6902FAB2
:10158C0003F3DA43BB681A407B699A404FF0FF3192
:10159C007B6901FA03F3D9437B680B40134318466C
:1015AC002437BD4680BC704780B582B000AF7860F0
:1015BC007B68013BB3F1807F01D301230FE00A4A22
:1015CC007B68013B53600F214FF0FF30FFF790FF1A
:1015DC00054B00229A60044B07221A600023184620
:1015EC000837BD4680BD00BF10E000E080B582B07A
:1015FC0000AF78607868FFF72DFF00BF0837BD4655
:10160C0080BD80B586B000AF0346B9607A60FB73CD
:10161C0000237B61FFF742FF78617A68B9687869CB
:10162C00FFF790FF024697F90F3011461846FFF767
:10163C005FFF00BF1837BD4680BD80B582B000AFDC
:10164C000346FB7197F907301846FFF735FF00BFCB
:10165C000837BD4680BD80B582B000AF7860786831
:10166C00FFF7A2FF034618460837BD4680BD0000B1
:10167C0080B48BB000AF7860396000237B620023AC
:10168C003B6248E101227B6A02FA03F3FB613B688F
:10169C001B68FA691340BB61BA69FB699A4240F056
:1016AC0037813B685B68A34A93425ED0A14A934260
:1016BC0075D8A14A934258D09F4A93426FD89F4AFB
:1016CC00934252D09D4A934269D89D4A93424CD042
:1016DC009B4A934263D89B4A934246D0994A934281
:1016EC005DD8122B2AD8122B59D801A252F823F00C
:1016FC00771700085117000863170008A517000892
:10170C00AB170008AB170008AB170008AB170008A5
:10171C00AB170008AB170008AB170008AB17000895
:10172C00AB170008AB170008AB170008AB17000885
:10173C00AB170008591700086D170008824A93422E
:10174C0013D02CE03B68DB683B6229E03B68DB682C
:10175C0004333B6224E03B68DB6808333B621FE0E8
:10176C003B68DB680C333B621AE03B689B68002BE0
:10177C0002D104233B6213E03B689B68012B05D12B
:10178C0008233B627B68FA691A6109E008233B6213
:10179C007B68FA695A6103E000233B6200E000BFFA
:1017AC00BB69FF2B01D87B6801E07B6804337B614C
:1017BC00BB69FF2B02D87B6A9B0002E07B6A083B6B
:1017CC009B003B617B691A680F213B6901FA03F3AB
:1017DC00DB431A40396A3B6901FA03F31A437B690C
:1017EC001A603B685B6803F08053002B00F090801C
:1017FC00564B9B69554A43F001039361534B9B69CC
:10180C0003F00103BB60BB68514A7B6A9B0802333F
:10181C0052F82330FB607B6A03F003039B000F221A
:10182C0002FA03F3DB43FA681340FB607B68494A16
:10183C0093420DD07B68484A934207D07B68474A55
:10184C00934201D1022304E0032302E0012300E0D0
:10185C0000237A6A02F0030292009340FA68134361
:10186C00FB603B497B6A9B080233FA6841F82320F2
:10187C003B685B6803F48013002B06D0384B9A68E6
:10188C003749BB6913438B6006E0354B9A68BB69DB
:10189C00DB43334913408B603B685B6803F40013F4
:1018AC00002B06D02E4BDA682D49BB691343CB6055
:1018BC0006E02B4BDA68BB69DB4329491340CB604C
:1018CC003B685B6803F40033002B06D0244B5A684A
:1018DC002349BB6913434B6006E0214B5A68BB6933
:1018EC00DB431F4913404B603B685B6803F4803358
:1018FC00002B06D01A4B1A681949BB6913430B60AD
:10190C0006E0174B1A68BB69DB43154913400B60A3
:10191C007B6A01337B623B681A687B6A22FA03F3A9
:10192C00002B7FF4AFAE00BF00BF2C37BD4680BC90
:10193C00704700BF00003210000031100000221070
:10194C0000002110000012100000111000100240C5
:10195C000000014000080140000C01400010014053
:10196C000004014080B485B000AF78600B467B80EA
:10197C007B689A687B881340002B02D00123FB7391
:10198C0001E00023FB73FB7B18461437BD4680BC7B
:10199C00704780B483B000AF78600B467B801346F1
:1019AC007B707B78002B03D07A887B681A6103E00C
:1019BC007B881A047B681A6100BF0C37BD4680BC5B
:1019CC00704780B485B000AF78600B467B807B6835
:1019DC00DB68FB607A88FB6813401A04FB68D94308
:1019EC007B880B401A437B681A6100BF1437BD46D5
:1019FC0080BC704780B586B000AF78607B68002BE8
:101A0C0001D101236CE27B681B6803F00103002BFE
:101A1C0000F08780924B5B6803F00C03042B0CD016
:101A2C008F4B5B6803F00C03082B12D18C4B5B685B
:101A3C0003F48033B3F5803F0BD1894B1B6803F45F
:101A4C000033002B6CD07B685B68002B68D10123C2
:101A5C0046E27B685B68B3F5803F06D1804B1B6820
:101A6C007F4A43F4803313602EE07B685B68002B65
:101A7C000CD17B4B1B687A4A23F480331360784B70
:101A8C001B68774A23F4802313601DE07B685B6836
:101A9C00B3F5A02F0CD1724B1B68714A43F4802311
:101AAC0013606F4B1B686E4A43F4803313600BE07A
:101ABC006B4B1B686A4A23F480331360684B1B68BA
:101ACC00674A23F4802313607B685B68002B13D078
:101ADC00FFF7B6FC386108E0FFF7B2FC02463B6941
:101AEC00D31A642B01D90323FAE15D4B1B6803F471
:101AFC000033002BF0D014E0FFF7A2FC386108E0B3
:101B0C00FFF79EFC02463B69D31A642B01D90323D1
:101B1C00E6E1534B1B6803F40033002BF0D100E0DB
:101B2C0000BF7B681B6803F00203002B63D04C4B97
:101B3C005B6803F00C03002B0BD0494B5B6803F084
:101B4C000C03082B1CD1464B5B6803F48033002B31
:101B5C0016D1434B1B6803F00203002B05D07B68A6
:101B6C001B69012B01D00123BAE13D4B1B6823F00B
:101B7C00F8027B685B69DB00394913430B603AE080
:101B8C007B681B69002B20D0364B01221A60FFF7B3
:101B9C0057FC386108E0FFF753FC02463B69D31A47
:101BAC00022B01D903239BE12D4B1B6803F002038D
:101BBC00002BF0D02A4B1B6823F0F8027B685B6982
:101BCC00DB00274913430B6015E0264B00221A60FB
:101BDC00FFF736FC386108E0FFF732FC02463B6940
:101BEC00D31A022B01D903237AE11D4B1B6803F096
:101BFC000203002BF0D17B681B6803F00803002B59
:101C0C003AD07B689B69002B19D0174B01221A60C4
:101C1C00FFF716FC386108E0FFF712FC02463B693F
:101C2C00D31A022B01D903235AE10D4B5B6A03F043
:101C3C000203002BF0D0012000F09AFA1CE00A4BB2
:101C4C0000221A60FFF7FCFB38610FE0FFF7F8FB8E
:101C5C0002463B69D31A022B08D9032340E100BF8B
:101C6C000010024000004242800442429E4B5B6ADC
:101C7C0003F00203002BE9D17B681B6803F004031B
:101C8C00002B00F0A6800023FB75974BDB6903F05B
:101C9C008053002B0DD1944BDB69934A43F0805356
:101CAC00D361914BDB6903F08053BB60BB680123AC
:101CBC00FB758E4B1B6803F48073002B18D18B4B78
:101CCC001B688A4A43F480731360FFF7B9FB3861D1
:101CDC0008E0FFF7B5FB02463B69D31A642B01D928
:101CEC000323FDE0814B1B6803F48073002BF0D0C1
:101CFC007B68DB68012B06D17B4B1B6A7A4A43F06D
:101D0C00010313622DE07B68DB68002B0CD1764B52
:101D1C001B6A754A23F001031362734B1B6A724AE8
:101D2C0023F0040313621CE07B68DB68052B0CD1E9
:101D3C006D4B1B6A6C4A43F0040313626A4B1B6ABB
:101D4C00694A43F0010313620BE0674B1B6A664A56
:101D5C0023F001031362644B1B6A634A23F00403F0
:101D6C0013627B68DB68002B15D0FFF769FB3861C9
:101D7C000AE0FFF765FB02463B69D31A41F2883251
:101D8C00934201D90323ABE0574B1B6A03F00203C8
:101D9C00002BEED014E0FFF753FB38610AE0FFF79D
:101DAC004FFB02463B69D31A41F28832934201D968
:101DBC00032395E04C4B1B6A03F00203002BEED17E
:101DCC00FB7D012B05D1484BDB69474A23F080533F
:101DDC00D3617B68DB69002B00F08180424B5B6830
:101DEC0003F00C03082B61D07B68DB69022B46D116
:101DFC003F4B00221A60FFF723FB386108E0FFF726
:101E0C001FFB02463B69D31A022B01D9032367E05F
:101E1C00354B1B6803F00073002BF0D17B681B6AF9
:101E2C00B3F5803F08D1304B5B6823F400327B68FC
:101E3C009B682D4913434B602B4B5B6823F4741246
:101E4C007B68196A7B685B6A0B43274913434B60B9
:101E5C00274B01221A60FFF7F3FA386108E0FFF70D
:101E6C00EFFA02463B69D31A022B01D9032337E060
:101E7C001D4B1B6803F00073002BF0D02FE01C4BA4
:101E8C0000221A60FFF7DCFA386108E0FFF7D8FA95
:101E9C0002463B69D31A022B01D9032320E0124BD3
:101EAC001B6803F00073002BF0D118E07B68DB6932
:101EBC00012B01D1012313E00B4B5B68FB60FB682A
:101ECC0003F480327B681B6A9A4206D1FB6803F4E8
:101EDC0070127B685B6A9A4201D0012300E00023F8
:101EEC0018461837BD4680BD0010024000700040F7
:101EFC006000424280B584B000AF786039607B6886
:101F0C00002B01D10123D0E06A4B1B6803F00703BF
:101F1C003A689A4210D9674B1B6823F0070265494F
:101F2C003B6813430B60634B1B6803F007033A6871
:101F3C009A4201D00123B8E07B681B6803F00203CE
:101F4C00002B20D07B681B6803F00403002B05D00A
:101F5C00594B5B68584A43F4E06353607B681B68D9
:101F6C0003F00803002B05D0534B5B68524A43F433
:101F7C0060535360504B5B6823F0F0027B689B68A6
:101F8C004D4913434B607B681B6803F00103002B26
:101F9C0040D07B685B68012B07D1474B1B6803F46F
:101FAC000033002B15D101237FE07B685B68022B8B
:101FBC0007D1414B1B6803F00073002B09D101239F
:101FCC0073E03D4B1B6803F00203002B01D101238E
:101FDC006BE0394B5B6823F003027B685B68364926
:101FEC0013434B60FFF72CFAF8600AE0FFF728FA6E
:101FFC000246FB68D31A41F28832934201D903237B
:10200C0053E02D4B5B6803F00C027B685B689B0014
:10201C009A42EBD1274B1B6803F007033A689A42AC
:10202C0010D2244B1B6823F0070222493B68134350
:10203C000B60204B1B6803F007033A689A4201D0EF
:10204C00012332E07B681B6803F00403002B08D0EB
:10205C00194B5B6823F4E0627B68DB681649134319
:10206C004B607B681B6803F00803002B09D0124BF4
:10207C005B6823F460527B681B69DB000E491343D9
:10208C004B6000F021F802460B4B5B681B0903F018
:10209C000F030A49CB5C22FA03F3094A1360094B7C
:1020AC001B681846FFF78AF9002318461037BD46FF
:1020BC0080BD00BF0020024000100240F82900083B
:1020CC001C0000202000002080B487B000AF00234B
:1020DC00FB600023BB6000237B6100237B6000233B
:1020EC003B611E4B5B68FB60FB6803F00C03042B2D
:1020FC0002D0082B03D027E0194B3B6127E0FB688B
:10210C009B0C03F00F03174AD35C7B60FB6803F452
:10211C008033002B10D0114B5B685B0C03F0010378
:10212C00114AD35CBB607B680D4A02FB03F2BB68AF
:10213C00B2FBF3F37B6104E07B680C4A02FB03F314
:10214C007B617B693B6102E0054B3B6100BF3B69F6
:10215C0018461C37BD4680BC704700BF00100240BB
:10216C0000127A00082A0008182A000800093D000D
:10217C0080B485B000AF78600A4B1B680A4AA2FB9A
:10218C0003235B0A7A6802FB03F3FB6000BFFB6866
:10219C005A1EFA60002BF9D100BF00BF1437BD46A0
:1021AC0080BC70471C000020D34D621080B582B0FB
:1021BC0000AF78607B68002B01D1012341E07B6884
:1021CC0093F83D30DBB2002B06D17B68002283F8FC
:1021DC003C207868FFF75AF87B68022283F83D2090
:1021EC007B681A687B6804331946104600F06EFA57
:1021FC007B68012283F846207B68012283F83E200D
:10220C007B68012283F83F207B68012283F8402001
:10221C007B68012283F841207B68012283F84220ED
:10222C007B68012283F843207B68012283F84420D9
:10223C007B68012283F845207B68012283F83D20CE
:10224C00002318460837BD4680BD000080B485B019
:10225C0000AF78607B6893F83D30DBB2012B01D086
:10226C00012335E07B68022283F83D207B681B68E4
:10227C00DA687B681B6842F00102DA607B681B68D5
:10228C00164A934209D07B681B68B3F1804F04D087
:10229C007B681B68124A934211D17B681B689B6850
:1022AC0003F00703FB60FB68062B10D07B681B68F0
:1022BC001A687B681B6842F001021A6007E07B68B1
:1022CC001B681A687B681B6842F001021A600023C5
:1022DC0018461437BD4680BC704700BF002C014027
:1022EC000004004080B582B000AF78607B681B684A
:1022FC001B6903F00203022B22D17B681B68DB688D
:10230C0003F00203022B1BD17B681B686FF00202E7
:10231C001A617B6801221A777B681B689B6903F042
:10232C000303002B03D0786800F0B4F905E078685B
:10233C0000F0A7F9786800F0B6F97B6800221A77EC
:10234C007B681B681B6903F00403042B22D17B6898
:10235C001B68DB6803F00403042B1BD17B681B6830
:10236C006FF004021A617B6802221A777B681B6883
:10237C009B6903F44073002B03D0786800F08AF952
:10238C0005E0786800F07DF9786800F08CF97B68DE
:10239C0000221A777B681B681B6903F00803082B63
:1023AC0022D17B681B68DB6803F00803082B1BD168
:1023BC007B681B686FF008021A617B6804221A772D
:1023CC007B681B68DB6903F00303002B03D0786880
:1023DC0000F060F905E0786800F053F9786800F0D7
:1023EC0062F97B6800221A777B681B681B6903F013
:1023FC001003102B22D17B681B68DB6803F01003E1
:10240C00102B1BD17B681B686FF010021A617B6864
:10241C0008221A777B681B68DB6903F44073002B76
:10242C0003D0786800F036F905E0786800F029F9F7
:10243C00786800F038F97B6800221A777B681B6893
:10244C001B6903F00103012B0ED17B681B68DB6851
:10245C0003F00103012B07D17B681B686FF00102AD
:10246C001A617868FEF7D2FC7B681B681B6903F065
:10247C008003802B0ED17B681B68DB6803F0800324
:10248C00802B07D17B681B686FF080021A6178681B
:10249C0000F06BFA7B681B681B6903F04003402B50
:1024AC000ED17B681B68DB6803F04003402B07D11F
:1024BC007B681B686FF040021A61786800F0FCF8CA
:1024CC007B681B681B6903F02003202B0ED17B68F3
:1024DC001B68DB6803F02003202B07D17B681B688B
:1024EC006FF020021A61786800F036FA00BF0837E6
:1024FC00BD4680BD80B584B000AF786039600023E4
:10250C00FB737B6893F83C30012B01D10223B4E0C0
:10251C007B68012283F83C207B68022283F83D20F3
:10252C007B681B689B68BB60BB6823F07703BB6050
:10253C00BB6823F47F43BB607B681B68BA689A60F6
:10254C003B681B68B3F5005F3ED0B3F5005F00F24B
:10255C008780B3F5805F00F08680B3F5805F7FD80D
:10256C00702B1AD0702B7BD8602B50D0602B77D867
:10257C00502B3CD0502B73D8402B58D0402B6FD8BD
:10258C00302B64D0302B6BD8202B60D0202B67D80D
:10259C00002B5CD0102B5AD062E07B6818683B682B
:1025AC0099683B685A683B68DB6800F05EF97B68A9
:1025BC001B689B68BB60BB6843F07703BB607B68A0
:1025CC001B68BA689A604FE07B6818683B6899682A
:1025DC003B685A683B68DB6800F047F97B681B680E
:1025EC009A687B681B6842F480429A603CE07B6886
:1025FC0018683B6859683B68DB681A4600F0BEF8FF
:10260C007B681B685021184600F015F92CE07B689C
:10261C0018683B6859683B68DB681A4600F0DCF8C0
:10262C007B681B686021184600F005F91CE07B688C
:10263C0018683B6859683B68DB681A4600F09EF8DE
:10264C007B681B684021184600F0F5F80CE07B68AD
:10265C001A683B681B681946104600F0ECF803E05A
:10266C000123FB7300E000BF7B68012283F83D204F
:10267C007B68002283F83C20FB7B18461037BD4654
:10268C0080BD80B483B000AF786000BF0C37BD460E
:10269C0080BC704780B483B000AF786000BF0C374B
:1026AC00BD4680BC704780B483B000AF786000BF7B
:1026BC000C37BD4680BC704780B483B000AF7860E7
:1026CC0000BF0C37BD4680BC7047000080B485B09D
:1026DC0000AF786039607B681B68FB607B68254ABB
:1026EC00934207D07B68B3F1804F03D07B68224ABA
:1026FC00934208D1FB6823F07003FB603B685B6876
:10270C00FA681343FB607B681A4A934207D07B68D4
:10271C00B3F1804F03D07B68174A934208D1FB6812
:10272C0023F44073FB603B68DB68FA681343FB607F
:10273C00FB6823F080023B685B691343FB607B689A
:10274C00FA681A603B689A687B68DA623B681A68B8
:10275C007B689A627B68074A934203D13B681A698B
:10276C007B681A637B6801225A6100BF1437BD462F
:10277C0080BC7047002C01400004004080B487B03E
:10278C0000AFF860B9607A60FB681B6A7B61FB681C
:10279C001B6A23F00102FB681A62FB689B693B61B0
:1027AC003B6923F0F0033B617B681B013A691343DF
:1027BC003B617B6923F00A037B617A69BB68134335
:1027CC007B61FB683A699A61FB687A691A6200BF9F
:1027DC001C37BD4680BC704780B487B000AFF86032
:1027EC00B9607A60FB681B6A7B61FB681B6A23F02B
:1027FC001002FB681A62FB689B693B613B6923F41E
:10280C0070433B617B681B033A6913433B617B69F3
:10281C0023F0A0037B61BB681B017A6913437B61C6
:10282C00FB683A699A61FB687A691A6200BF1C37C7
:10283C00BD4680BC704780B485B000AF786039600D
:10284C007B689B68FB60FB6823F07003FB603A6855
:10285C00FB68134343F00703FB607B68FA689A60DC
:10286C0000BF1437BD4680BC704780B487B000AF42
:10287C00F860B9607A603B60FB689B687B617B6940
:10288C0023F47F437B613B681A027B681A43BB6865
:10289C0013437A6913437B61FB687A699A6000BFC2
:1028AC001C37BD4680BC704780B485B000AF7860E3
:1028BC0039607B6893F83C30012B01D1022341E055
:1028CC007B68012283F83C207B68022283F83D2040
:1028DC007B681B685B68FB607B681B689B68BB60E4
:1028EC00FB6823F07003FB603B681B68FA681343BA
:1028FC00FB607B681B68FA685A607B681B68144A2B
:10290C00934209D07B681B68B3F1804F04D07B687D
:10291C001B68104A93420CD1BB6823F08003BB6048
:10292C003B685B68BA681343BB607B681B68BA681A
:10293C009A607B68012283F83D207B68002283F833
:10294C003C20002318461437BD4680BC704700BF9E
:10295C00002C01400004004080B483B000AF7860CC
:10296C0000BF0C37BD4680BC704780B483B000AF4D
:10297C00786000BF0C37BD4680BC704770B5002630
:10298C000C4D0D4C641BA410A64209D100F022F88A
:10299C0000260A4D0A4C641BA410A64205D170BD3A
:1029AC0055F8043B98470136EEE755F8043B984739
:1029BC000136F2E71C2A00081C2A00081C2A000811
:1029CC00202A000803460244934200D1704703F8C2
:1029DC00011BF9E7F8B500BFF8BC08BC9E46704770
:0C29EC00F8B500BFF8BC08BC9E46704760
:1029F80000000000000000000102030406070809A7
:102A080002030405060708090A0B0C0D0E0F101027
:042A180001020000B7
:042A1C00310100087C
:042A20000D0100089C
:102A24000500000002000000030000000101010095
:102A34000100000002000000040000000024F40073
:082A4400100000000100000079
:04000005080013518B
:00000001FF
