:020000040800F2
:1000000000280020E1150008051500080B15000860
:1000100011150008171500081D1500080000000044
:100020000000000000000000000000002315000890
:100030002F150008000000003B15000847150008B8
:100040002916000829160008291600082916000894
:100050002916000829160008291600082916000884
:100060002916000829160008291600082916000874
:100070002916000829160008291600082916000864
:100080002916000829160008291600082916000854
:100090002916000829160008291600082916000844
:1000A0002916000829160008291600082916000834
:1000B0005515000829160008000000002916000840
:1000C00029160008000000000000000029160008A2
:1000D0000000000029160008291600080000000092
:1000E000291600082916000829160008000000003B
:1000F0000000000000000000000000000000000000
:0C01000000000000000000005FF808F1A3
:10010C0010B5054C237833B9044B13B10448AFF345
:10011C0000800123237010BD8C0000200000000023
:10012C005C2E000808B5034B1BB103490348AFF321
:10013C00008008BD00000000900000205C2E00082C
:10014C0080B582B000AF78607B68082B00F28781A5
:10015C0001A252F823F000BF89010008DB0100085E
:10016C002D0200087F020008D102000823030008BA
:10017C0075030008C7030008190400080022402179
:10018C00CD4801F04EFD00228021CB4801F049FD05
:10019C0000224FF48071C84801F043FD00224FF457
:1001AC000071C54801F03DFD00224FF48061C2484A
:1001BC0001F037FD00224FF40061BF4801F031FD22
:1001CC0001224FF48051BC4801F02BFD70E101225B
:1001DC004021B94801F025FD00228021B64801F0EC
:1001EC0020FD00224FF48071B34801F01AFD01226A
:1001FC004FF40071B04801F014FD01224FF48061FE
:10020C00AD4801F00EFD01224FF40061AA4801F047
:10021C0008FD01224FF48051A74801F002FD47E18F
:10022C0000224021A44801F0FCFC00228021A248BD
:10023C0001F0F7FC01224FF480719F4801F0F1FCB2
:10024C0000224FF400719C4801F0EBFC00224FF4AB
:10025C008061994801F0E5FC01224FF40061964859
:10026C0001F0DFFC00224FF48051934801F0D9FCDF
:10027C001EE100224021904801F0D3FC0022802195
:10028C008D4801F0CEFC00224FF480718A4801F0B9
:10029C00C8FC00224FF40071874801F0C2FC012217
:1002AC004FF48061844801F0BCFC01224FF40061E2
:1002BC00814801F0B6FC00224FF480517E4801F0D9
:1002CC00B0FCF5E0012240217B4801F0AAFC0022A1
:1002DC008021794801F0A5FC00224FF4807176480A
:1002EC0001F09FFC01224FF40071734801F099FC5E
:1002FC0001224FF48061704801F093FC00224FF40E
:10030C0000616D4801F08DFC00224FF480516A4869
:10031C0001F087FCCCE000224021674801F081FC11
:10032C0001228021644801F07CFC00224FF4807192
:10033C00614801F076FC00224FF400715E4801F038
:10034C0070FC01224FF480615B4801F06AFC0022D2
:10035C004FF40061584801F064FC00224FF48051C6
:10036C00554801F05EFCA3E000224021524801F008
:10037C0058FC01228021504801F053FC00224FF41C
:10038C0080714D4801F04DFC00224FF400714A4839
:10039C0001F047FC00224FF48061474801F041FC1A
:1003AC0000224FF40061444801F03BFC00224FF462
:1003BC008051414801F035FC7AE0002240213E4852
:1003CC0001F02FFC002280213B4801F02AFC002286
:1003DC004FF48071384801F024FC01224FF4007175
:1003EC00354801F01EFC01224FF48061324801F0C7
:1003FC0018FC01224FF400612F4801F012FC01227D
:10040C004FF480512C4801F00CFC51E000224021AB
:10041C00294801F006FC00228021274801F001FC4C
:10042C0000224FF48071244801F0FBFB00224FF4B2
:10043C000071214801F0F5FB00224FF480611E4849
:10044C0001F0EFFB00224FF400611B4801F0E9FBC7
:10045C0000224FF48051184801F0E3FB28E0002201
:10046C004021154801F0DDFB00228021124801F0EB
:10047C00D8FB00224FF480710F4801F0D2FB002210
:10048C004FF400710C4801F0CCFB01224FF4806159
:10049C00094801F0C6FB00224FF40061064801F048
:1004AC00C0FB00224FF48051034801F0BAFB00BF9F
:1004BC0000BF0837BD4680BD0008014080B400AFC6
:1004CC001A4B1B681A4A82FB03129210DB17D31AC1
:1004DC00184A1360154B1968154B83FB01239A10AE
:1004EC00CB17D21A13469B0013445B00CA1A114B4C
:1004FC005A60114B1B680E4A82FB03129210DB17D9
:10050C00D31A0C4A93600C4B1968094B83FB0123DB
:10051C009A10CB17D21A13469B0013445B00CA1ACD
:10052C00044BDA6000BFBD4680BC7047BC000020A5
:10053C0067666666AC000020C000002080B582B003
:10054C0000AF78607B68032B7AD801A252F823F0B5
:10055C006D050008A5050008DD0500081506000856
:10056C0000220821394801F05CFB01221021374898
:10057C0001F057FB01222021344801F052FB0122EB
:10058C004021324801F04DFB314A7B6852F8233050
:10059C001846FFF7D5FD54E0012208212B4801F045
:1005AC0040FB00221021294801F03BFB01222021B5
:1005BC00264801F036FB01224021244801F031FB92
:1005CC00234A7B6852F823301846FFF7B9FD38E010
:1005DC00012208211D4801F024FB012210211B4897
:1005EC0001F01FFB00222021184801F01AFB012208
:1005FC004021164801F015FB154A7B6852F8233050
:10060C001846FFF79DFD1CE0012208210F4801F060
:10061C0008FB012210210D4801F003FB01222021CF
:10062C000A4801F0FEFA00224021084801F0F9FACC
:10063C00074A7B6852F823301846FFF781FD00E02B
:10064C0000BF00BF0837BD4680BD00BF000C014095
:10065C00AC00002080B500AF012201210E4801F052
:10066C00E0FA012202210C4801F0DBFA01220421FC
:10067C00094801F0D6FA01220821074801F0D1FA05
:10068C0001221021044801F0CCFA01222021024859
:10069C0001F0C7FA00BF80BD0008014080B500AF73
:1006AC0000220121074801F0BCFA01220221054871
:1006BC0001F0B7FA01220421024801F0B2FA00BF9E
:1006CC0080BD00BF0008014080B500AF01220121B0
:1006DC00074801F0A6FA00220221054801F0A1FA10
:1006EC0001220421024801F09CFA00BF80BD00BF2A
:1006FC000008014080B500AF01220121074801F03C
:10070C0090FA01220221054801F08BFA0022042103
:10071C00024801F086FA00BF80BD00BF000801400E
:10072C0080B500AF00220821074801F07AFA0122B7
:10073C001021054801F075FA01222021024801F030
:10074C0070FA00BF80BD00BF0008014080B500AF4B
:10075C0001220821074801F064FA00221021054803
:10076C0001F05FFA01222021024801F05AFA00BF81
:10077C0080BD00BF0008014080B500AF01220821F8
:10078C00074801F04EFA01221021054801F049FA00
:10079C0000222021024801F044FA00BF80BD00BFB6
:1007AC000008014080B500AF0121044801F051FA66
:1007BC000821024801F04DFA00BF80BD000801403D
:1007CC0080B500AF0221044801F043FA1021024821
:1007DC0001F03FFA00BF80BD0008014080B500AFBA
:1007EC000421044801F035FA2021024801F031FAC5
:1007FC0000BF80BD0008014080B400AF074B1B68F0
:10080C000133064A1360054B1B68632B02DD034B57
:10081C0001221A6000BFBD4680BC7047BC0000209E
:10082C0080B500AFA94B1B680C2B00F2218201A2F2
:10083C0052F823F075080008A708000833090008CF
:10084C00BF0900084B0A00087D0C00087D0C00084D
:10085C007D0C00087D0C00087D0C0008F90A0008CE
:10086C006B0B0008ED0B0008FFF7F4FE974B012211
:10087C001A60974B1B68642202FB03F3184600F0C6
:10088C0017FD012000F028FD924B1B68924A136063
:10089C008F4B1B68914A1360F9E1FFF7FFFEFFF7DE
:1008AC006BFF8F4B1B68012B0CD1642000F014FDE7
:1008BC00894B1B68013B884A1360884B1B68013BC2
:1008CC00864A1360874B1B68012B15D17F4B022284
:1008DC001A60854B1B68642202FB03F3184600F078
:1008EC00E7FC012000F0F8FC7F4B1B687A4A136090
:1008FC007D4B1B68794A1360002000F069FA0346AF
:10090C00002B00F0B781714B0A221A60714B1B68E7
:10091C00714A1360714B02221A60FFF79BFE19207B
:10092C0000F016FDA6E1FFF7B9FEFFF70FFF6C4BC9
:10093C001B68012B0CD1642000F0CEFC664B1B68AD
:10094C00013B654A1360654B1B68013B634A1360AE
:10095C00644B1B68012B15D15C4B03221A605C4B5A
:10096C001B68642202FB03F3184600F0A1FC012073
:10097C0000F0B2FC564B1B68574A1360554B1B6872
:10098C00564A1360002000F023FA0346002B00F0B7
:10099C0073814E4B0A221A604E4B1B684E4A1360F1
:1009AC004E4B02221A60FFF755FE192000F0D0FCC6
:1009BC0062E1FFF79FFEFFF7B3FE494B1B68012B6B
:1009CC000CD1642000F088FC434B1B68013B424A6D
:1009DC001360424B1B68013B404A1360414B1B6840
:1009EC00012B15D1394B04221A603F4B1B68642232
:1009FC0002FB03F3184600F05BFC012000F06CFCDA
:100A0C00394B1B68344A1360374B1B68334A1360ED
:100A1C00002000F0DDF90346002B00F02F812B4B5A
:100A2C000A221A602B4B1B682B4A13602B4B022299
:100A3C001A60FFF70FFE192000F08AFC1EE1FFF789
:100A4C0043FEFFF76DFE264B1B68012B0CD1642077
:100A5C0000F042FC204B1B68013B1F4A13601F4BEC
:100A6C001B68013B1D4A13601E4B1B68012B15D1E3
:100A7C00164B01221A60164B1B68642202FB03F30F
:100A8C00184600F015FC012000F026FC114B1B68E9
:100A9C00114A13600E4B1B68104A1360002000F0C3
:100AAC0097F90346002B00F0EB80084B0A221A60E2
:100ABC00084B1B68084A1360084B02221A60FFF7A8
:100ACC00C9FD192000F044FCDAE000BFA8000020AA
:100ADC000800002000000020BC000020C000002006
:100AEC00F8000020F000002004000020694B1B6877
:100AFC00012B04D1192000F02BFCFFF753FE012031
:100B0C0000F066F90346002B01D0FFF775FE0220BA
:100B1C0000F05EF90346002B0AD05F4B1B685F4A5E
:100B2C0013605E4B1A685E4B1B68D31A5D4A1360E8
:100B3C00002000F04DF90346002B00F0A3805A4B27
:100B4C000B221A60564B1B68534A1360574B0322F7
:100B5C001A60FFF77FFD192000F0FAFB92E04D4B75
:100B6C001B68012B04D1192000F0F2FBFFF728FEC3
:100B7C00012000F02DF90346002B01D0FFF73CFEBD
:100B8C00022000F025F90346002B13D0424B1B68C2
:100B9C00434A1360424B1A68404B1B689A4202DB73
:100BAC003E4B3C221A603D4B1A683D4B1B68D31AD6
:100BBC003C4A1360002000F00BF90346002B63D075
:100BCC00394B0C221A60374B1B68334A1360374B76
:100BDC0004221A60FFF73EFD192000F0B9FB53E028
:100BEC002C4B1B68012B04D1192000F0B1FBFFF733
:100BFC00F5FD012000F0ECF80346002B01D0FFF7C7
:100C0C00FBFD022000F0E4F80346002B13D0224B2E
:100C1C001B68244A1360234B1A68204B1B689A42AA
:100C2C0002DB1E4B3C221A601C4B1A681D4B1B68C6
:100C3C00D31A1B4A1360002000F0CAF80346002B9D
:100C4C0024D0194B01221A60164B1B68642202FB3C
:100C5C0003F3184600F02CFB012000F03DFB0F4B7A
:100C6C001B680D4A13600F4B1B68104A13600DE094
:100C7C0000BF0CE000BF0AE000BF08E000BF06E0C8
:100C8C0000BF04E000BF02E000BF00E000BF00BFF7
:100C9C0080BD00BF10010020BC000020000000201F
:100CAC000400002008000020A8000020C000002044
:100CBC0080B582B000AF00237B6070E03C4A7B685B
:100CCC00134419783B4A7B6813440A461A703A4A13
:100CDC007B6813441978364A7B6813440A461A70A9
:100CEC00364A7B6852F823309BB21946344800F0E0
:100CFC0081FF03461946304A7B6813440A461A7032
:100D0C002D4A7B6813441A7829497B680B441B785D
:100D1C009A4241D1264A7B6813441A7825497B684C
:100D2C000B441B789A4237D1234A7B6813441A78B8
:100D3C0024497B680B441B789A4219D01E4A7B6865
:100D4C00134419781F4A7B6813440A461A701D4ACB
:100D5C007B6813441B78002B1ED11B4A7B68012136
:100D6C0042F82310194A7B68642142F8231013E0DF
:100D7C00164A7B6852F823305A1E14497B6841F896
:100D8C002320124A7B6852F82330002B04DC0D4AD6
:100D9C007B68134401221A707B6801337B607B688B
:100DAC00022B8BDD00BF00BF0837BD4680BD00BFE6
:100DBC00D4000020D8000020D0000020100000201B
:100DCC00000C01400C000020DC000020C4000020BE
:100DDC0080B483B000AF78607B68022B02DC7B6848
:100DEC00002B01DA00230DE0094A7B6852F823300E
:100DFC00012B06D1064A7B68002142F823100123FF
:100E0C0000E0002318460C37BD4680BC704700BF7D
:100E1C00DC00002080B582B000AF7860FFF748FF9F
:100E2C0000F0F4F900BF0837BD4680BD80B582B034
:100E3C0000AF00F0F5FB00F043F800F0C9F800F04B
:100E4C007BF81A4801F066FB192000F059FA3220A1
:100E5C0000F06AFA00237B6000F022F901220021E5
:100E6C00134800F0B5F901220021124800F0B0F946
:100E7C00114B1B68012B0DD1192000F041FA7B6836
:100E8C005A1C7A601846FFF759FB7B68032B01DD6F
:100E9C0000237B60094B1B68012B04D1FFF70EFB71
:100EAC00322000F041FA00F0D7F9E1E720010020F0
:100EBC002D080008851300080001002008010020FF
:100ECC0080B590B000AF07F1180328220021184616
:100EDC0001F0F2FE3B1D00221A605A609A60DA6043
:100EEC001A610223BB610123BB621023FB62002346
:100EFC007B6307F11803184600F0E0FE0346002B55
:100F0C0001D000F0C7F80F237B600023BB600023E7
:100F1C00FB6000233B6100237B613B1D00211846D5
:100F2C0001F04CF90346002B01D000F0B3F800BFE0
:100F3C004037BD4680BD000080B586B000AF07F1DC
:100F4C00080300221A605A609A60DA603B4600225D
:100F5C001A605A601D4B4FF080421A601B4B41F6D1
:100F6C003F725A60194B00229A60184B0922DA60C2
:100F7C00164B00221A61154B00229A61134801F09E
:100F8C0079FA0346002B01D000F084F84FF480531B
:100F9C00BB6007F1080319460C4801F00FFC03462F
:100FAC00002B01D000F076F800233B6000237B601F
:100FBC003B461946054801F0DBFD0346002B01D0EA
:100FCC0000F068F800BF1837BD4680BD2001002036
:100FDC0080B586B000AF07F1080300221A605A6092
:100FEC009A60DA60284B9B69274A43F004039361AB
:100FFC00254B9B6903F004037B607B68224B9B6948
:10100C00214A43F0080393611F4B9B6903F00803CB
:10101C003B603B68002241F6FF711C4800F001FE6A
:10102C0000224FF48F611A4800F0FBFD41F6FF736C
:10103C00BB600123FB6000233B6102237B6107F152
:10104C0008031946114800F05BFC0723BB60002322
:10105C00FB6001233B6107F1080319460C4800F0C3
:10106C004FFC4FF48F63BB600123FB6000233B619B
:10107C0002237B6107F108031946054800F040FC88
:10108C0000BF1837BD4680BD00100240000801406B
:10109C00000C014080B400AF72B600BFFEE7000048
:1010AC0080B400AF034B00221A6000BFBD4680BC69
:1010BC00704700BFE800002090B587B000AF3C46F9
:1010CC0084E80F00142001F0E7FD03463B613A6809
:1010DC003B691A607A683B695A60BA683B699A60E6
:1010EC003A7B3B691A733B6900221A612B4B1B68D4
:1010FC00002B03D1294A3B6913604CE0274B1B683A
:10110C007B613B695A687B695B689A421ED27B693A
:10111C005A683B695B68D21A7B695A603B697A6989
:10112C001A611E4A3B69136035E03B695A687B695A
:10113C005B68D21A3B695A603B695A687B691B69C8
:10114C005B689A4207D97B691B697B617B691B6968
:10115C00002BEAD100E000BF7B691B69002B0AD190
:10116C003B695A687B695B68D21A3B695A607B6938
:10117C003A691A610FE07B691B6959683B695A68C7
:10118C007B691B698A1A5A607B691A693B691A6107
:10119C007B693A691A611C37BD4690BDE800002096
:1011AC0080B582B000AF094B1B687B607B68002B5D
:1011BC0008D0064B1B681B69044A1360786801F061
:1011CC0073FD00E000BF0837BD4680BDE80000207D
:1011DC0080B588B000AFF860B9607A60FB683B619D
:1011EC00BB687B617B68BB617B69002B02D10123EF
:1011FC003B7701E000233B7707F110030FCBFFF7A0
:10120C005BFF00BF2037BD4680BD000080B400AF3F
:10121C00104B1B68002B18D00E4B1B685B68002B07
:10122C0004D10C4B1B6801221A730FE0094B1B688D
:10123C005A68013A5A60074B1B685B68002B05D152
:10124C00044B1B6801221A7300E000BFBD4680BC32
:10125C00704700BFE800002090B585B000AF134B7D
:10126C001B68002B1ED0114B1B681B7B002B14D052
:10127C000E4B1B681B6898470C4B1B683C460FCBEE
:10128C0084E80F00FFF78CFFBB68002B05D03B6890
:10129C00B968BA681846FFF79BFF0121002000F0DF
:1012AC00F1FC00E000BF1437BD4690BDE800002003
:1012BC0080B483B000AF7860054A7B681360054B3F
:1012CC0000221A6000BF0C37BD4680BC704700BFBF
:1012DC00EC000020F000002080B483B000AF7860F8
:1012EC00054A7B681360054B00221A6000BF0C375F
:1012FC00BD4680BC704700BFF4000020F800002001
:10130C0080B483B000AF7860054A7B681360054BEE
:10131C0000221A6000BF0C37BD4680BC704700BF6E
:10132C00FC0000200001002080B483B000AF786086
:10133C00054A7B681360054B00221A6000BF0C370E
:10134C00BD4680BC704700BF04010020080100208E
:10135C0080B483B000AF7860054A7B681360054B9E
:10136C0000221A6000BF0C37BD4680BC704700BF1E
:10137C000C0100201001002080B400AF294B1B6829
:10138C00002B0BDD274B1B68013B264A1360254BBA
:10139C001B68002B02DC244B01221A60234B1B68B8
:1013AC00002B0BDD214B1B68013B204A13601F4BAC
:1013BC001B68002B02DC1E4B01221A601D4B1B68A4
:1013CC00002B0BDD1B4B1B68013B1A4A1360194B9E
:1013DC001B68002B02DC184B01221A60174B1B6890
:1013EC00002B0BDD154B1B68013B144A1360134B90
:1013FC001B68002B02DC124B01221A60114B1B687C
:10140C00002B0BDD0F4B1B68013B0E4A13600D4B81
:10141C001B68002B02DC0C4B01221A6000BFBD467E
:10142C0080BC7047EC000020F0000020F40000208D
:10143C00F8000020FC000020000100200401002026
:10144C00080100200C0100201001002080B485B0A0
:10145C0000AF154B9B69144A43F001039361124B87
:10146C009B6903F00103BB60BB680F4BDB690E4A41
:10147C0043F08053D3610C4BDB6903F080537B60EA
:10148C007B680A4B5B68FB60FB6823F0E063FB60E6
:10149C00FB6843F08063FB60044AFB68536000BF49
:1014AC001437BD4680BC704700100240000001405C
:1014BC0080B584B000AF78607B681B68B3F1804F57
:1014CC0013D10C4BDB690B4A43F00103D361094B7D
:1014DC00DB6903F00103FB60FB68002200211C2088
:1014EC0000F0D7F91C2000F0F0F900BF1037BD4612
:1014FC0080BD00BF0010024080B400AFFEE780B496
:10150C0000AFFEE780B400AFFEE780B400AFFEE7AB
:10151C0080B400AFFEE780B400AF00BFBD4680BC16
:10152C00704780B400AF00BFBD4680BC704780B42C
:10153C0000AF00BFBD4680BC704780B500AF00F067
:10154C00B5F800BF80BD000080B500AF024801F0C7
:10155C002DF800BF80BD00BF2001002080B586B0F3
:10156C0000AF7860144A154BD31A7B617B693B61E1
:10157C00134B1B68002B02D1114B124A1A60104BF3
:10158C001A687B6813443A699A4207D201F05AFBF5
:10159C0003460C221A604FF0FF3309E0084B1B681E
:1015AC00FB60074B1A687B681344054A1360FB68A1
:1015BC0018461837BD4680BD0028002000040000E6
:1015CC00140100208001002080B400AF00BFBD4694
:1015DC0080BC7047FFF7F8FF0B480C490C4A0023FE
:1015EC0002E0D458C4500433C4188C42F9D3094ACD
:1015FC00094C002301E013600432A242FBD301F03A
:10160C0027FBFFF713FC7047000000208C00002024
:10161C00A02E00088C0000207C010020FEE70000BA
:10162C0080B500AF084B1B68074A43F010031360EA
:10163C00032000F023F90F2000F008F8FFF706FF55
:10164C000023184680BD00BF0020024080B582B048
:10165C0000AF7860124B1A68124B1B7819464FF486
:10166C007A73B3FBF1F3B2FBF3F3184600F03BF9DA
:10167C000346002B01D001230EE07B680F2B0AD808
:10168C00002279684FF0FF3000F003F9064A7B68BE
:10169C001360002300E0012318460837BD4680BDC7
:1016AC001C000020240000202000002080B400AF8B
:1016BC00054B1B781A46054B1B681344034A1360F1
:1016CC0000BFBD4680BC704724000020680100208C
:1016DC0080B400AF024B1B681846BD4680BC7047F7
:1016EC006801002080B485B000AF78607B6803F09F
:1016FC000703FB600C4BDB68BB60BA684FF6FF035B
:10170C001340BB60FB681A02BB68134343F0BF6312
:10171C0043F40033BB60044ABB68D36000BF14378A
:10172C00BD4680BC704700BF00ED00E080B400AF48
:10173C00044BDB681B0A03F007031846BD4680BC4C
:10174C00704700BF00ED00E080B483B000AF0346EB
:10175C00FB7197F90730002B0BDBFB7903F01F02B1
:10176C00064997F907305B09012000FA02F241F8AB
:10177C00232000BF0C37BD4680BC704700E100E061
:10178C0080B483B000AF03463960FB7197F9073022
:10179C00002B0ADB3B68DAB20C4997F907301201CF
:1017AC00D2B20B4483F800230AE03B68DAB2084952
:1017BC00FB7903F00F03043B1201D2B20B441A76EF
:1017CC0000BF0C37BD4680BC704700BF00E100E095
:1017DC0000ED00E080B489B000AFF860B9607A60C9
:1017EC00FB6803F00703FB61FB69C3F10703042BE0
:1017FC0028BF0423BB61FB690433062B02D9FB69A8
:10180C00033B00E000237B614FF0FF32BB6902FA1F
:10181C0003F3DA43BB681A407B699A404FF0FF31FF
:10182C007B6901FA03F3D9437B680B4013431846D9
:10183C002437BD4680BC704780B582B000AF78605D
:10184C007B68013BB3F1807F01D301230FE00A4A8F
:10185C007B68013B53600F214FF0FF30FFF790FF87
:10186C00054B00229A60044B07221A60002318468D
:10187C000837BD4680BD00BF10E000E080B582B0E7
:10188C0000AF78607868FFF72DFF00BF0837BD46C2
:10189C0080BD80B586B000AF0346B9607A60FB733B
:1018AC0000237B61FFF742FF78617A68B968786939
:1018BC00FFF790FF024697F90F3011461846FFF7D5
:1018CC005FFF00BF1837BD4680BD80B582B000AF4A
:1018DC000346FB7197F907301846FFF735FF00BF39
:1018EC000837BD4680BD80B582B000AF786078689F
:1018FC00FFF7A2FF034618460837BD4680BD00001F
:10190C0080B48BB000AF7860396000237B62002319
:10191C003B6248E101227B6A02FA03F3FB613B68FC
:10192C001B68FA691340BB61BA69FB699A4240F0C3
:10193C0037813B685B68A34A93425ED0A14A9342CD
:10194C0075D8A14A934258D09F4A93426FD89F4A68
:10195C00934252D09D4A934269D89D4A93424CD0AF
:10196C009B4A934263D89B4A934246D0994A9342EE
:10197C005DD8122B2AD8122B59D801A252F823F079
:10198C00071A0008E1190008F3190008351A0008B5
:10199C003B1A00083B1A00083B1A00083B1A0008C7
:1019AC003B1A00083B1A00083B1A00083B1A0008B7
:1019BC003B1A00083B1A00083B1A00083B1A0008A7
:1019CC003B1A0008E9190008FD190008824A9342E5
:1019DC0013D02CE03B68DB683B6229E03B68DB689A
:1019EC0004333B6224E03B68DB6808333B621FE056
:1019FC003B68DB680C333B621AE03B689B68002B4E
:101A0C0002D104233B6213E03B689B68012B05D198
:101A1C0008233B627B68FA691A6109E008233B6280
:101A2C007B68FA695A6103E000233B6200E000BF67
:101A3C00BB69FF2B01D87B6801E07B6804337B61B9
:101A4C00BB69FF2B02D87B6A9B0002E07B6A083BD8
:101A5C009B003B617B691A680F213B6901FA03F318
:101A6C00DB431A40396A3B6901FA03F31A437B6979
:101A7C001A603B685B6803F08053002B00F0908089
:101A8C00564B9B69554A43F001039361534B9B6939
:101A9C0003F00103BB60BB68514A7B6A9B080233AD
:101AAC0052F82330FB607B6A03F003039B000F2288
:101ABC0002FA03F3DB43FA681340FB607B68494A84
:101ACC0093420DD07B68484A934207D07B68474AC3
:101ADC00934201D1022304E0032302E0012300E03E
:101AEC0000237A6A02F0030292009340FA681343CF
:101AFC00FB603B497B6A9B080233FA6841F8232060
:101B0C003B685B6803F48013002B06D0384B9A6853
:101B1C003749BB6913438B6006E0354B9A68BB6948
:101B2C00DB43334913408B603B685B6803F4001361
:101B3C00002B06D02E4BDA682D49BB691343CB60C2
:101B4C0006E02B4BDA68BB69DB4329491340CB60B9
:101B5C003B685B6803F40033002B06D0244B5A68B7
:101B6C002349BB6913434B6006E0214B5A68BB69A0
:101B7C00DB431F4913404B603B685B6803F48033C5
:101B8C00002B06D01A4B1A681949BB6913430B601A
:101B9C0006E0174B1A68BB69DB43154913400B6011
:101BAC007B6A01337B623B681A687B6A22FA03F317
:101BBC00002B7FF4AFAE00BF00BF2C37BD4680BCFE
:101BCC00704700BF000032100000311000002210DE
:101BDC000000211000001210000011100010024033
:101BEC000000014000080140000C014000100140C1
:101BFC000004014080B485B000AF78600B467B8058
:101C0C007B689A687B881340002B02D00123FB73FE
:101C1C0001E00023FB73FB7B18461437BD4680BCE8
:101C2C00704780B483B000AF78600B467B8013465E
:101C3C007B707B78002B03D07A887B681A6103E079
:101C4C007B881A047B681A6100BF0C37BD4680BCC8
:101C5C00704780B485B000AF78600B467B807B68A2
:101C6C00DB68FB607A88FB6813401A04FB68D94375
:101C7C007B880B401A437B681A6100BF1437BD4642
:101C8C0080BC704780B483B000AF78600B46FB70AB
:101C9C00094B1B69084A23F004031361FB78012BE1
:101CAC0001D130BF02E040BF20BF20BF00BF0C37C6
:101CBC00BD4680BC704700BF00ED00E080B586B02B
:101CCC0000AF78607B68002B01D101236CE27B684C
:101CDC001B6803F00103002B00F08780924B5B68BC
:101CEC0003F00C03042B0CD08F4B5B6803F00C033C
:101CFC00082B12D18C4B5B6803F48033B3F5803F17
:101D0C000BD1894B1B6803F40033002B6CD07B6820
:101D1C005B68002B68D1012346E27B685B68B3F5F6
:101D2C00803F06D1804B1B687F4A43F4803313609D
:101D3C002EE07B685B68002B0CD17B4B1B687A4ACE
:101D4C0023F480331360784B1B68774A23F4802389
:101D5C0013601DE07B685B68B3F5A02F0CD1724B50
:101D6C001B68714A43F4802313606F4B1B686E4AE7
:101D7C0043F4803313600BE06B4B1B686A4A23F40B
:101D8C0080331360684B1B68674A23F4802313600D
:101D9C007B685B68002B13D0FFF79AFC386108E076
:101DAC00FFF796FC02463B69D31A642B01D9032337
:101DBC00FAE15D4B1B6803F40033002BF0D014E008
:101DCC00FFF786FC386108E0FFF782FC02463B69AE
:101DDC00D31A642B01D90323E6E1534B1B6803F49C
:101DEC000033002BF0D100E000BF7B681B6803F0D0
:101DFC000203002B63D04C4B5B6803F00C03002BED
:101E0C000BD0494B5B6803F00C03082B1CD1464BE1
:101E1C005B6803F48033002B16D1434B1B6803F033
:101E2C000203002B05D07B681B69012B01D0012319
:101E3C00BAE13D4B1B6823F0F8027B685B69DB0061
:101E4C00394913430B603AE07B681B69002B20D0A7
:101E5C00364B01221A60FFF73BFC386108E0FFF7B4
:101E6C0037FC02463B69D31A022B01D903239BE1B1
:101E7C002D4B1B6803F00203002BF0D02A4B1B6880
:101E8C0023F0F8027B685B69DB00274913430B6086
:101E9C0015E0264B00221A60FFF71AFC386108E0A7
:101EAC00FFF716FC02463B69D31A022B01D9032318
:101EBC007AE11D4B1B6803F00203002BF0D17B6809
:101ECC001B6803F00803002B3AD07B689B69002B3E
:101EDC0019D0174B01221A60FFF7FAFB386108E0A2
:101EEC00FFF7F6FB02463B69D31A022B01D90323F9
:101EFC005AE10D4B5B6A03F00203002BF0D001207A
:101F0C0000F09AFA1CE00A4B00221A60FFF7E0FB83
:101F1C0038610FE0FFF7DCFB02463B69D31A022B5A
:101F2C0008D9032340E100BF0010024000004242E8
:101F3C00800442429E4B5B6A03F00203002BE9D102
:101F4C007B681B6803F00403002B00F0A6800023C1
:101F5C00FB75974BDB6903F08053002B0DD1944B31
:101F6C00DB69934A43F08053D361914BDB6903F0F7
:101F7C008053BB60BB680123FB758E4B1B6803F45D
:101F8C008073002B18D18B4B1B688A4A43F48073E7
:101F9C001360FFF79DFB386108E0FFF799FB0246E1
:101FAC003B69D31A642B01D90323FDE0814B1B68D9
:101FBC0003F48073002BF0D07B68DB68012B06D117
:101FCC007B4B1B6A7A4A43F0010313622DE07B685A
:101FDC00DB68002B0CD1764B1B6A754A23F001038E
:101FEC001362734B1B6A724A23F0040313621CE0E6
:101FFC007B68DB68052B0CD16D4B1B6A6C4A43F07C
:10200C00040313626A4B1B6A694A43F001031362AF
:10201C000BE0674B1B6A664A23F001031362644BA7
:10202C001B6A634A23F0040313627B68DB68002B92
:10203C0015D0FFF74DFB38610AE0FFF749FB02466C
:10204C003B69D31A41F28832934201D90323ABE0A6
:10205C00574B1B6A03F00203002BEED014E0FFF782
:10206C0037FB38610AE0FFF733FB02463B69D31AB2
:10207C0041F28832934201D9032395E04C4B1B6A01
:10208C0003F00203002BEED1FB7D012B05D1484B55
:10209C00DB69474A23F08053D3617B68DB69002BF3
:1020AC0000F08180424B5B6803F00C03082B61D07D
:1020BC007B68DB69022B46D13F4B00221A60FFF78D
:1020CC0007FB386108E0FFF703FB02463B69D31AB4
:1020DC00022B01D9032367E0354B1B6803F0007317
:1020EC00002BF0D17B681B6AB3F5803F08D1304BD5
:1020FC005B6823F400327B689B682D4913434B606B
:10210C002B4B5B6823F474127B68196A7B685B6ADF
:10211C000B43274913434B60274B01221A60FFF7EF
:10212C00D7FA386108E0FFF7D3FA02463B69D31AB5
:10213C00022B01D9032337E01D4B1B6803F00073FE
:10214C00002BF0D02FE01C4B00221A60FFF7C0FAD6
:10215C00386108E0FFF7BCFA02463B69D31A022B40
:10216C0001D9032320E0124B1B6803F00073002BF2
:10217C00F0D118E07B68DB69012B01D1012313E05E
:10218C000B4B5B68FB60FB6803F480327B681B6A5B
:10219C009A4206D1FB6803F470127B685B6A9A4220
:1021AC0001D0012300E0002318461837BD4680BD3E
:1021BC0000100240007000406000424280B584B0C4
:1021CC0000AF786039607B68002B01D10123D0E02F
:1021DC006A4B1B6803F007033A689A4210D9674BA5
:1021EC001B6823F0070265493B6813430B60634B84
:1021FC001B6803F007033A689A4201D00123B8E048
:10220C007B681B6803F00203002B20D07B681B68E3
:10221C0003F00403002B05D0594B5B68584A43F478
:10222C00E06353607B681B6803F00803002B05D048
:10223C00534B5B68524A43F460535360504B5B689A
:10224C0023F0F0027B689B684D4913434B607B681D
:10225C001B6803F00103002B40D07B685B68012BEB
:10226C0007D1474B1B6803F40033002B15D1012316
:10227C007FE07B685B68022B07D1414B1B6803F046
:10228C000073002B09D1012373E03D4B1B6803F055
:10229C000203002B01D101236BE0394B5B6823F067
:1022AC0003027B685B68364913434B60FFF710FAF7
:1022BC00F8600AE0FFF70CFA0246FB68D31A41F209
:1022CC008832934201D9032353E02D4B5B6803F012
:1022DC000C027B685B689B009A42EBD1274B1B6816
:1022EC0003F007033A689A4210D2244B1B6823F080
:1022FC00070222493B6813430B60204B1B6803F019
:10230C0007033A689A4201D0012332E07B681B68CC
:10231C0003F00403002B08D0194B5B6823F4E06234
:10232C007B68DB68164913434B607B681B6803F0C2
:10233C000803002B09D0124B5B6823F460527B68B6
:10234C001B69DB000E4913434B6000F021F8024679
:10235C000B4B5B681B0903F00F030A49CB5C22FA99
:10236C0003F3094A1360094B1B681846FFF76EF913
:10237C00002318461037BD4680BD00BF0020024028
:10238C0000100240742E00081C00002020000020C9
:10239C0080B487B000AF0023FB600023BB60002338
:1023AC007B6100237B6000233B611E4B5B68FB6001
:1023BC00FB6803F00C03042B02D0082B03D027E09E
:1023CC00194B3B6127E0FB689B0C03F00F03174A8A
:1023DC00D35C7B60FB6803F48033002B10D0114B73
:1023EC005B685B0C03F00103114AD35CBB607B6838
:1023FC000D4A02FB03F2BB68B2FBF3F37B6104E012
:10240C007B680C4A02FB03F37B617B693B6102E056
:10241C00054B3B6100BF3B6918461C37BD4680BC71
:10242C00704700BF0010024000127A00842E000892
:10243C00942E000800093D0080B485B000AF786090
:10244C000A4B1B680A4AA2FB03235B0A7A6802FB4D
:10245C0003F3FB6000BFFB685A1EFA60002BF9D136
:10246C0000BF00BF1437BD4680BC70471C00002065
:10247C00D34D621080B582B000AF78607B68002BC2
:10248C0001D1012341E07B6893F83D30DBB2002B96
:10249C0006D17B68002283F83C207868FFF708F8A7
:1024AC007B68022283F83D207B681A687B680433C2
:1024BC001946104600F06EFA7B68012283F846201C
:1024CC007B68012283F83E207B68012283F83F2041
:1024DC007B68012283F840207B68012283F841202D
:1024EC007B68012283F842207B68012283F8432019
:1024FC007B68012283F844207B68012283F8452005
:10250C007B68012283F83D20002318460837BD461E
:10251C0080BD000080B485B000AF78607B6893F814
:10252C003D30DBB2012B01D0012335E07B68022268
:10253C0083F83D207B681B68DA687B681B6842F077
:10254C000102DA607B681B68164A934209D07B68EB
:10255C001B68B3F1804F04D07B681B68124A93420E
:10256C0011D17B681B689B6803F00703FB60FB6859
:10257C00062B10D07B681B681A687B681B6842F0BE
:10258C0001021A6007E07B681B681A687B681B688D
:10259C0042F001021A60002318461437BD4680BC75
:1025AC00704700BF002C01400004004080B582B091
:1025BC0000AF78607B681B681B6903F00203022B79
:1025CC0022D17B681B68DB6803F00203022B1BD152
:1025DC007B681B686FF002021A617B6801221A7714
:1025EC007B681B689B6903F00303002B03D078689E
:1025FC0000F0B4F905E0786800F0A7F9786800F00D
:10260C00B6F97B6800221A777B681B681B6903F09C
:10261C000403042B22D17B681B68DB6803F00403E2
:10262C00042B1BD17B681B686FF004021A617B685A
:10263C0002221A777B681B689B6903F44073002B9A
:10264C0003D0786800F08AF905E0786800F07DF92D
:10265C00786800F08CF97B6800221A777B681B681D
:10266C001B6903F00803082B22D17B681B68DB680D
:10267C0003F00803082B1BD17B681B686FF0080262
:10268C001A617B6804221A777B681B68DB6903F08C
:10269C000303002B03D0786800F060F905E078683C
:1026AC0000F053F9786800F062F97B6800221A7721
:1026BC007B681B681B6903F01003102B22D17B680D
:1026CC001B68DB6803F01003102B1BD17B681B68A5
:1026DC006FF010021A617B6808221A777B681B68FE
:1026EC00DB6903F44073002B03D0786800F036F9F3
:1026FC0005E0786800F029F9786800F038F97B6813
:10270C0000221A777B681B681B6903F00103012BFD
:10271C000ED17B681B68DB6803F00103012B07D12A
:10272C007B681B686FF001021A617868FEF772FB18
:10273C007B681B681B6903F08003802B0ED17B68C0
:10274C001B68DB6803F08003802B07D17B681B6858
:10275C006FF080021A61786800F06BFA7B681B6876
:10276C001B6903F04003402B0ED17B681B68DB68B0
:10277C0003F04003402B07D17B681B686FF04002CD
:10278C001A61786800F0FCF87B681B681B6903F021
:10279C002003202B0ED17B681B68DB6803F0200321
:1027AC00202B07D17B681B686FF020021A617868B8
:1027BC0000F036FA00BF0837BD4680BD80B584B046
:1027CC0000AF786039600023FB737B6893F83C3072
:1027DC00012B01D10223B4E07B68012283F83C2059
:1027EC007B68022283F83D207B681B689B68BB607A
:1027FC00BB6823F07703BB60BB6823F47F43BB60EB
:10280C007B681B68BA689A603B681B68B3F5005F0D
:10281C003ED0B3F5005F00F28780B3F5805F00F027
:10282C008680B3F5805F7FD8702B1AD0702B7BD845
:10283C00602B50D0602B77D8502B3CD0502B73D8BA
:10284C00402B58D0402B6FD8302B64D0302B6BD80A
:10285C00202B60D0202B67D8002B5CD0102B5AD0AB
:10286C0062E07B6818683B6899683B685A683B680B
:10287C00DB6800F05EF97B681B689B68BB60BB681B
:10288C0043F07703BB607B681B68BA689A604FE0C3
:10289C007B6818683B6899683B685A683B68DB68DA
:1028AC0000F047F97B681B689A687B681B6842F4E8
:1028BC0080429A603CE07B6818683B6859683B68CA
:1028CC00DB681A4600F0BEF87B681B68502118467E
:1028DC0000F015F92CE07B6818683B6859683B6878
:1028EC00DB681A4600F0DCF87B681B686021184630
:1028FC0000F005F91CE07B6818683B6859683B6878
:10290C00DB681A4600F09EF87B681B68402118466D
:10291C0000F0F5F80CE07B681A683B681B681946F8
:10292C00104600F0ECF803E00123FB7300E000BF5D
:10293C007B68012283F83D207B68002283F83C20D1
:10294C00FB7B18461037BD4680BD80B483B000AF0A
:10295C00786000BF0C37BD4680BC704780B483B034
:10296C0000AF786000BF0C37BD4680BC704780B4A8
:10297C0083B000AF786000BF0C37BD4680BC704799
:10298C0080B483B000AF786000BF0C37BD4680BC0C
:10299C007047000080B485B000AF786039607B6808
:1029AC001B68FB607B68254A934207D07B68B3F1B8
:1029BC00804F03D07B68224A934208D1FB6823F0F6
:1029CC007003FB603B685B68FA681343FB607B68D1
:1029DC001A4A934207D07B68B3F1804F03D07B68CF
:1029EC00174A934208D1FB6823F44073FB603B68A1
:1029FC00DB68FA681343FB60FB6823F080023B68DA
:102A0C005B691343FB607B68FA681A603B689A68E1
:102A1C007B68DA623B681A687B689A627B68074A53
:102A2C00934203D13B681A697B681A637B68012265
:102A3C005A6100BF1437BD4680BC7047002C014062
:102A4C000004004080B487B000AFF860B9607A60D1
:102A5C00FB681B6A7B61FB681B6A23F00102FB6845
:102A6C001A62FB689B693B613B6923F0F0033B6195
:102A7C007B681B013A6913433B617B6923F00A03B2
:102A8C007B617A69BB6813437B61FB683A699A6125
:102A9C00FB687A691A6200BF1C37BD4680BC704760
:102AAC0080B487B000AFF860B9607A60FB681B6ACD
:102ABC007B61FB681B6A23F01002FB681A62FB68DF
:102ACC009B693B613B6923F470433B617B681B034F
:102ADC003A6913433B617B6923F0A0037B61BB68BC
:102AEC001B017A6913437B61FB683A699A61FB6845
:102AFC007A691A6200BF1C37BD4680BC704780B42F
:102B0C0085B000AF786039607B689B68FB60FB68C0
:102B1C0023F07003FB603A68FB68134343F0070330
:102B2C00FB607B68FA689A6000BF1437BD4680BCB6
:102B3C00704780B487B000AFF860B9607A603B60D2
:102B4C00FB689B687B617B6923F47F437B613B68FB
:102B5C001A027B681A43BB6813437A6913437B617F
:102B6C00FB687A699A6000BF1C37BD4680BC704711
:102B7C0080B485B000AF786039607B6893F83C30E6
:102B8C00012B01D1022341E07B68012283F83C2018
:102B9C007B68022283F83D207B681B685B68FB60C6
:102BAC007B681B689B68BB60FB6823F07003FB6051
:102BBC003B681B68FA681343FB607B681B68FA6808
:102BCC005A607B681B68144A934209D07B681B6867
:102BDC00B3F1804F04D07B681B68104A93420CD130
:102BEC00BB6823F08003BB603B685B68BA68134327
:102BFC00BB607B681B68BA689A607B68012283F8AB
:102C0C003D207B68002283F83C20002318461437B3
:102C1C00BD4680BC704700BF002C01400004004042
:102C2C0080B483B000AF786000BF0C37BD4680BC69
:102C3C00704780B483B000AF786000BF0C37BD46DE
:102C4C0080BC7047014B1868704700BF28000020FB
:102C5C0070B500260C4D0D4C641BA410A64209D176
:102C6C0000F0F6F800260A4D0A4C641BA410A6428C
:102C7C0005D170BD55F8043B98470136EEE755F881
:102C8C00043B98470136F2E7982E0008982E00086E
:102C9C00982E00089C2E0008024B0146186800F084
:102CAC005FB800BF28000020024B0146186800F0F6
:102CBC000BB800BF2800002003460244934200D109
:102CCC00704703F8011BF9E738B50546002943D0D6
:102CDC0051F8043C0C1F002BB8BFE41800F0AAF804
:102CEC001E4A1368104633B9636014602846BDE869
:102CFC00384000F0A5B8A3420AD921686218934263
:102D0C0001BF1A685B685218226063600460EDE7CB
:102D1C001A465B680BB1A342FAD911685018A0424D
:102D2C000BD120680144501883421160DED1186821
:102D3C005B68014411605360D8E702D90C232B6007
:102D4C00D4E7206821188B4201BF19685B68091809
:102D5C00216063605460C9E738BD00BF18010020D2
:102D6C00F8B5CD1C25F0030508350C2D38BF0C2506
:102D7C00002D064601DBA94203D90C233360002049
:102D8C00F8BD00F057F821490A6814469CB9204F49
:102D9C003B6823B92146304600F03CF838602946A0
:102DAC00304600F037F8431C23D10C2330463360F7
:102DBC0000F046F8E3E723685B1B17D40B2B03D911
:102DCC0023601C44256004E06368A2420CBF0B60C6
:102DDC005360304600F034F804F10B00231D20F052
:102DEC000700C21ACCD01B1AA350C9E7224664684C
:102DFC00CCE7C41C24F00304A042E3D0211A3046D3
:102E0C0000F008F80130DDD1CFE700BF1801002039
:102E1C001C01002038B50023054D044608462B60E4
:102E2C00FEF79CFB431C02D12B6803B1236038BD19
:102E3C006C010020014800F009B800BF74010020AB
:102E4C00014800F004B800BF7401002070477047BF
:102E5C00F8B500BFF8BC08BC9E467047F8B500BF7B
:082E6C00F8BC08BC9E4670474B
:102E74000000000000000000010203040607080926
:102E840002030405060708090A0B0C0D0E0F1010A7
:042E94000102000037
:042E980031010008FC
:042E9C000D0100081C
:102EA0000500000002000000030000000101010015
:102EB0000100000002000000040000000024F400F3
:102EC00010000000010000002C00002000000000A5
:102ED00000000000000000000000000000000000F2
:102EE00000000000000000000000000000000000E2
:102EF00000000000000000000000000000000000D2
:102F000000000000000000000000000000000000C1
:102F100000000000000000000000000000000000B1
:0C2F2000000000000000000000000000A5
:04000005080015E1F9
:00000001FF
